{
  "contractName": "MyERC20Token",
  "abi": [
    {
      "inputs": [
        {
          "internalType": "uint256",
          "name": "initialSupply",
          "type": "uint256"
        }
      ],
      "stateMutability": "nonpayable",
      "type": "constructor"
    },
    {
      "anonymous": false,
      "inputs": [
        {
          "indexed": true,
          "internalType": "address",
          "name": "donor",
          "type": "address"
        },
        {
          "indexed": false,
          "internalType": "uint256",
          "name": "amount",
          "type": "uint256"
        }
      ],
      "name": "DonationReceived",
      "type": "event"
    },
    {
      "anonymous": false,
      "inputs": [
        {
          "indexed": true,
          "internalType": "address",
          "name": "donor",
          "type": "address"
        },
        {
          "indexed": false,
          "internalType": "uint256",
          "name": "totalDonated",
          "type": "uint256"
        }
      ],
      "name": "DonorUpdated",
      "type": "event"
    },
    {
      "anonymous": false,
      "inputs": [
        {
          "indexed": true,
          "internalType": "address",
          "name": "to",
          "type": "address"
        },
        {
          "indexed": false,
          "internalType": "uint256",
          "name": "amount",
          "type": "uint256"
        }
      ],
      "name": "FundsWithdrawn",
      "type": "event"
    },
    {
      "anonymous": false,
      "inputs": [
        {
          "indexed": true,
          "internalType": "address",
          "name": "oldOwner",
          "type": "address"
        },
        {
          "indexed": true,
          "internalType": "address",
          "name": "newOwner",
          "type": "address"
        }
      ],
      "name": "OwnershipTransferred",
      "type": "event"
    },
    {
      "anonymous": false,
      "inputs": [
        {
          "indexed": true,
          "internalType": "address",
          "name": "from",
          "type": "address"
        },
        {
          "indexed": true,
          "internalType": "address",
          "name": "to",
          "type": "address"
        },
        {
          "indexed": false,
          "internalType": "uint256",
          "name": "value",
          "type": "uint256"
        }
      ],
      "name": "Transfer",
      "type": "event"
    },
    {
      "inputs": [
        {
          "internalType": "address",
          "name": "",
          "type": "address"
        }
      ],
      "name": "donors",
      "outputs": [
        {
          "internalType": "uint256",
          "name": "totalDonated",
          "type": "uint256"
        },
        {
          "internalType": "uint256",
          "name": "lastDonationAmount",
          "type": "uint256"
        },
        {
          "internalType": "uint256",
          "name": "donationCount",
          "type": "uint256"
        }
      ],
      "stateMutability": "view",
      "type": "function"
    },
    {
      "inputs": [],
      "name": "totalSupply",
      "outputs": [
        {
          "internalType": "uint256",
          "name": "",
          "type": "uint256"
        }
      ],
      "stateMutability": "view",
      "type": "function"
    },
    {
      "inputs": [
        {
          "internalType": "address",
          "name": "_owner",
          "type": "address"
        }
      ],
      "name": "balanceOf",
      "outputs": [
        {
          "internalType": "uint256",
          "name": "balance",
          "type": "uint256"
        }
      ],
      "stateMutability": "view",
      "type": "function"
    },
    {
      "inputs": [
        {
          "internalType": "address",
          "name": "_to",
          "type": "address"
        },
        {
          "internalType": "uint256",
          "name": "_value",
          "type": "uint256"
        }
      ],
      "name": "transfer",
      "outputs": [
        {
          "internalType": "bool",
          "name": "success",
          "type": "bool"
        }
      ],
      "stateMutability": "nonpayable",
      "type": "function"
    },
    {
      "inputs": [
        {
          "internalType": "address",
          "name": "_donor",
          "type": "address"
        },
        {
          "internalType": "uint256",
          "name": "_value",
          "type": "uint256"
        }
      ],
      "name": "updateDonor",
      "outputs": [],
      "stateMutability": "nonpayable",
      "type": "function"
    },
    {
      "inputs": [
        {
          "internalType": "address",
          "name": "_to",
          "type": "address"
        },
        {
          "internalType": "uint256",
          "name": "_amount",
          "type": "uint256"
        }
      ],
      "name": "withdrawFunds",
      "outputs": [],
      "stateMutability": "nonpayable",
      "type": "function"
    },
    {
      "inputs": [
        {
          "internalType": "address",
          "name": "newOwner",
          "type": "address"
        }
      ],
      "name": "transferOwnership",
      "outputs": [],
      "stateMutability": "nonpayable",
      "type": "function"
    }
  ],
  "bytecode": "0x608060405234801561000f575f80fd5b5060405162000e1038038062000e1083398181016040528101906100339190610161565b806002819055506002545f803373ffffffffffffffffffffffffffffffffffffffff1673ffffffffffffffffffffffffffffffffffffffff1681526020019081526020015f20819055503360035f6101000a81548173ffffffffffffffffffffffffffffffffffffffff021916908373ffffffffffffffffffffffffffffffffffffffff1602179055503373ffffffffffffffffffffffffffffffffffffffff165f73ffffffffffffffffffffffffffffffffffffffff167fddf252ad1be2c89b69c2b068fc378daa952ba7f163c4a11628f55a4df523b3ef60025460405161011c919061019b565b60405180910390a3506101b4565b5f80fd5b5f819050919050565b6101408161012e565b811461014a575f80fd5b50565b5f8151905061015b81610137565b92915050565b5f602082840312156101765761017561012a565b5b5f6101838482850161014d565b91505092915050565b6101958161012e565b82525050565b5f6020820190506101ae5f83018461018c565b92915050565b610c4e80620001c25f395ff3fe608060405234801561000f575f80fd5b506004361061007b575f3560e01c8063a9059cbb11610059578063a9059cbb146100e9578063c107532914610119578063ca0cdea814610135578063f2fde38b146101675761007b565b806318160ddd1461007f57806370a082311461009d578063a53e83c6146100cd575b5f80fd5b610087610183565b604051610094919061083d565b60405180910390f35b6100b760048036038101906100b291906108b4565b61018c565b6040516100c4919061083d565b60405180910390f35b6100e760048036038101906100e29190610909565b6101d1565b005b61010360048036038101906100fe9190610909565b6102a3565b6040516101109190610961565b60405180910390f35b610133600480360381019061012e9190610909565b610440565b005b61014f600480360381019061014a91906108b4565b610644565b60405161015e9392919061097a565b60405180910390f35b610181600480360381019061017c91906108b4565b61066a565b005b5f600254905090565b5f805f8373ffffffffffffffffffffffffffffffffffffffff1673ffffffffffffffffffffffffffffffffffffffff1681526020019081526020015f20549050919050565b5f60015f8473ffffffffffffffffffffffffffffffffffffffff1673ffffffffffffffffffffffffffffffffffffffff1681526020019081526020015f20905081815f015f82825461022391906109dc565b925050819055508181600101819055506001816002015f82825461024791906109dc565b925050819055508273ffffffffffffffffffffffffffffffffffffffff167e7efdd1233ee3ab07af63b892fda9940e5956e65371970f28f33341f2fccb3c825f0154604051610296919061083d565b60405180910390a2505050565b5f815f803373ffffffffffffffffffffffffffffffffffffffff1673ffffffffffffffffffffffffffffffffffffffff1681526020019081526020015f20541015610323576040517f08c379a000000000000000000000000000000000000000000000000000000000815260040161031a90610a69565b60405180910390fd5b815f803373ffffffffffffffffffffffffffffffffffffffff1673ffffffffffffffffffffffffffffffffffffffff1681526020019081526020015f205f82825461036e9190610a87565b92505081905550815f808573ffffffffffffffffffffffffffffffffffffffff1673ffffffffffffffffffffffffffffffffffffffff1681526020019081526020015f205f8282546103c091906109dc565b925050819055506103d133836101d1565b8273ffffffffffffffffffffffffffffffffffffffff163373ffffffffffffffffffffffffffffffffffffffff167fddf252ad1be2c89b69c2b068fc378daa952ba7f163c4a11628f55a4df523b3ef8460405161042e919061083d565b60405180910390a36001905092915050565b60035f9054906101000a900473ffffffffffffffffffffffffffffffffffffffff1673ffffffffffffffffffffffffffffffffffffffff163373ffffffffffffffffffffffffffffffffffffffff16146104cf576040517f08c379a00000000000000000000000000000000000000000000000000000000081526004016104c690610b2a565b60405180910390fd5b805f803073ffffffffffffffffffffffffffffffffffffffff1673ffffffffffffffffffffffffffffffffffffffff1681526020019081526020015f2054101561054e576040517f08c379a000000000000000000000000000000000000000000000000000000000815260040161054590610b92565b60405180910390fd5b805f803073ffffffffffffffffffffffffffffffffffffffff1673ffffffffffffffffffffffffffffffffffffffff1681526020019081526020015f205f8282546105999190610a87565b92505081905550805f808473ffffffffffffffffffffffffffffffffffffffff1673ffffffffffffffffffffffffffffffffffffffff1681526020019081526020015f205f8282546105eb91906109dc565b925050819055508173ffffffffffffffffffffffffffffffffffffffff167feaff4b37086828766ad3268786972c0cd24259d4c87a80f9d3963a3c3d999b0d82604051610638919061083d565b60405180910390a25050565b6001602052805f5260405f205f91509050805f0154908060010154908060020154905083565b60035f9054906101000a900473ffffffffffffffffffffffffffffffffffffffff1673ffffffffffffffffffffffffffffffffffffffff163373ffffffffffffffffffffffffffffffffffffffff16146106f9576040517f08c379a00000000000000000000000000000000000000000000000000000000081526004016106f090610b2a565b60405180910390fd5b5f73ffffffffffffffffffffffffffffffffffffffff168173ffffffffffffffffffffffffffffffffffffffff1603610767576040517f08c379a000000000000000000000000000000000000000000000000000000000815260040161075e90610bfa565b60405180910390fd5b8073ffffffffffffffffffffffffffffffffffffffff1660035f9054906101000a900473ffffffffffffffffffffffffffffffffffffffff1673ffffffffffffffffffffffffffffffffffffffff167f8be0079c531659141344cd1fd0a4f28419497f9722a3daafe3b4186f6b6457e060405160405180910390a38060035f6101000a81548173ffffffffffffffffffffffffffffffffffffffff021916908373ffffffffffffffffffffffffffffffffffffffff16021790555050565b5f819050919050565b61083781610825565b82525050565b5f6020820190506108505f83018461082e565b92915050565b5f80fd5b5f73ffffffffffffffffffffffffffffffffffffffff82169050919050565b5f6108838261085a565b9050919050565b61089381610879565b811461089d575f80fd5b50565b5f813590506108ae8161088a565b92915050565b5f602082840312156108c9576108c8610856565b5b5f6108d6848285016108a0565b91505092915050565b6108e881610825565b81146108f2575f80fd5b50565b5f81359050610903816108df565b92915050565b5f806040838503121561091f5761091e610856565b5b5f61092c858286016108a0565b925050602061093d858286016108f5565b9150509250929050565b5f8115159050919050565b61095b81610947565b82525050565b5f6020820190506109745f830184610952565b92915050565b5f60608201905061098d5f83018661082e565b61099a602083018561082e565b6109a7604083018461082e565b949350505050565b7f4e487b71000000000000000000000000000000000000000000000000000000005f52601160045260245ffd5b5f6109e682610825565b91506109f183610825565b9250828201905080821115610a0957610a086109af565b5b92915050565b5f82825260208201905092915050565b7f496e73756666696369656e742062616c616e63650000000000000000000000005f82015250565b5f610a53601483610a0f565b9150610a5e82610a1f565b602082019050919050565b5f6020820190508181035f830152610a8081610a47565b9050919050565b5f610a9182610825565b9150610a9c83610825565b9250828203905081811115610ab457610ab36109af565b5b92915050565b7f4f6e6c7920746865206f776e65722063616e20706572666f726d2074686973205f8201527f616374696f6e0000000000000000000000000000000000000000000000000000602082015250565b5f610b14602683610a0f565b9150610b1f82610aba565b604082019050919050565b5f6020820190508181035f830152610b4181610b08565b9050919050565b7f496e73756666696369656e742066756e647300000000000000000000000000005f82015250565b5f610b7c601283610a0f565b9150610b8782610b48565b602082019050919050565b5f6020820190508181035f830152610ba981610b70565b9050919050565b7f4e6577206f776e657220697320746865207a65726f20616464726573730000005f82015250565b5f610be4601d83610a0f565b9150610bef82610bb0565b602082019050919050565b5f6020820190508181035f830152610c1181610bd8565b905091905056fea26469706673582212208e570156e8717b751ea6fbd63ad5e2343fa7a5ac0865542d5fb47c3a55bf9d6164736f6c63430008180033",
  "immutableReferences": {},
  "source": "// SPDX-License-Identifier: GPL-3.0\r\npragma solidity ^0.8.0;\r\n\r\ncontract MyERC20Token {\r\n    mapping(address => uint256) private _balances;\r\n    mapping(address => Donor) public donors;\r\n    uint256 private _totalSupply;\r\n    address private owner;\r\n\r\n    struct Donor {\r\n        uint256 totalDonated;\r\n        uint256 lastDonationAmount;\r\n        uint256 donationCount;\r\n    }\r\n\r\n    event Transfer(address indexed from, address indexed to, uint256 value);\r\n    event DonationReceived(address indexed donor, uint256 amount);\r\n    event DonorUpdated(address indexed donor, uint256 totalDonated);\r\n    event OwnershipTransferred(address indexed oldOwner, address indexed newOwner);\r\n    event FundsWithdrawn(address indexed to, uint256 amount);\r\n\r\n    constructor(uint256 initialSupply) {\r\n        _totalSupply = initialSupply;\r\n        _balances[msg.sender] = _totalSupply;\r\n        owner = msg.sender;\r\n        emit Transfer(address(0), msg.sender, _totalSupply);\r\n    }\r\n\r\n    modifier onlyOwner() {\r\n        require(msg.sender == owner, \"Only the owner can perform this action\");\r\n        _;\r\n    }\r\n\r\n    function totalSupply() public view returns (uint256) {\r\n        return _totalSupply;\r\n    }\r\n\r\n    function balanceOf(address _owner) public view returns (uint256 balance) {\r\n        return _balances[_owner];\r\n    }\r\n\r\n    function transfer(address _to, uint256 _value) public returns (bool success) {\r\n        require(_balances[msg.sender] >= _value, \"Insufficient balance\");\r\n        _balances[msg.sender] -= _value;\r\n        _balances[_to] += _value;\r\n        updateDonor(msg.sender, _value);\r\n        emit Transfer(msg.sender, _to, _value);\r\n        return true;\r\n    }\r\n\r\n    function updateDonor(address _donor, uint256 _value) public {\r\n        Donor storage donor = donors[_donor];\r\n        donor.totalDonated += _value;\r\n        donor.lastDonationAmount = _value;\r\n        donor.donationCount += 1;\r\n        emit DonorUpdated(_donor, donor.totalDonated);\r\n    }\r\n\r\n    function withdrawFunds(address _to, uint256 _amount) public onlyOwner {\r\n        require(_balances[address(this)] >= _amount, \"Insufficient funds\");\r\n        _balances[address(this)] -= _amount;\r\n        _balances[_to] += _amount;\r\n        emit FundsWithdrawn(_to, _amount);\r\n    }\r\n\r\n    function transferOwnership(address newOwner) public onlyOwner {\r\n        require(newOwner != address(0), \"New owner is the zero address\");\r\n        emit OwnershipTransferred(owner, newOwner);\r\n        owner = newOwner;\r\n    }\r\n}\r\n",
  "sourcePath": "D:\\Desktop\\Animal-Charity\\contracts\\MyERC20Token.sol",
  "compiler": {
    "name": "solc",
    "version": "0.8.24+commit.e11b9ed9.Emscripten.clang"
  },
  "schemaVersion": "3.4.16",
  "updatedAt": "2024-02-17T16:15:03.159Z",
  "devdoc": {
    "kind": "dev",
    "methods": {},
    "version": 1
  },
  "userdoc": {
    "kind": "user",
    "methods": {},
    "version": 1
  }
}